:100000000C9434000C9446000C9446000C9446006A
:100010000C947E000C9446000C9446000C94460010
:100020000C9446000C9446000C9446000C94460038
:100030000C9446000C9446000C9446000C94460028
:100040000C9446000C9446000C9446000C94460018
:100050000C9446000C9446000C9446000C94460008
:100060000C9446000C94460011241FBECFEFD8E03C
:10007000DEBFCDBF21E0A0E0B1E001C01D92A23003
:10008000B207E1F70E9479000C9495000C940000EF
:10009000F8948FEF8AB91BB817B888B1836088B914
:1000A00084B18C6184B915B8E8E6F0E080818260A3
:1000B0008083ECE6F0E0808183608083789408950B
:1000C00080910101813019F0823051F008958091C2
:1000D00000018F5F809300018BB910920101089598
:1000E000809100018150809300018BB91092010131
:1000F00008950E9448000E946000FDCF1F920F9259
:100100000FB60F9211248F93309904C081E0809331
:10011000010105C0319903C082E0809301018F91F4
:0E0120000F900FBE0F901F901895F894FFCF10
:00000001FF
